{
  "contractName": "LandRecord",
  "abi": [
    {
      "anonymous": false,
      "inputs": [
        {
          "indexed": false,
          "name": "land_id",
          "type": "string"
        },
        {
          "indexed": false,
          "name": "current_owner",
          "type": "string"
        },
        {
          "indexed": false,
          "name": "current_paddress",
          "type": "string"
        },
        {
          "indexed": false,
          "name": "new_owner",
          "type": "string"
        },
        {
          "indexed": false,
          "name": "new_paddress",
          "type": "string"
        },
        {
          "indexed": false,
          "name": "d",
          "type": "string"
        }
      ],
      "name": "Transferred",
      "type": "event"
    },
    {
      "constant": false,
      "inputs": [
        {
          "name": "_Land_id",
          "type": "string"
        },
        {
          "name": "_Land_name",
          "type": "string"
        },
        {
          "name": "_paddress",
          "type": "string"
        },
        {
          "name": "_Owner",
          "type": "string"
        },
        {
          "name": "_status",
          "type": "string"
        },
        {
          "name": "_city",
          "type": "string"
        },
        {
          "name": "_phone",
          "type": "string"
        },
        {
          "name": "_moreAccess",
          "type": "string"
        },
        {
          "name": "_documents",
          "type": "string"
        },
        {
          "name": "_price",
          "type": "string"
        }
      ],
      "name": "storeProperty",
      "outputs": [],
      "payable": false,
      "stateMutability": "nonpayable",
      "type": "function"
    },
    {
      "constant": false,
      "inputs": [
        {
          "name": "_status",
          "type": "string"
        }
      ],
      "name": "searchProperty",
      "outputs": [
        {
          "name": "",
          "type": "string[]"
        }
      ],
      "payable": false,
      "stateMutability": "nonpayable",
      "type": "function"
    },
    {
      "constant": false,
      "inputs": [
        {
          "name": "_phone",
          "type": "string"
        }
      ],
      "name": "searchMyProperty",
      "outputs": [
        {
          "name": "",
          "type": "string[]"
        }
      ],
      "payable": false,
      "stateMutability": "nonpayable",
      "type": "function"
    },
    {
      "constant": false,
      "inputs": [
        {
          "name": "_Owner",
          "type": "string"
        }
      ],
      "name": "accDetails",
      "outputs": [
        {
          "name": "",
          "type": "string[]"
        }
      ],
      "payable": false,
      "stateMutability": "nonpayable",
      "type": "function"
    },
    {
      "constant": false,
      "inputs": [
        {
          "name": "_landid",
          "type": "string"
        }
      ],
      "name": "retsearchProperty",
      "outputs": [
        {
          "name": "",
          "type": "string"
        },
        {
          "name": "",
          "type": "string"
        },
        {
          "name": "",
          "type": "string"
        },
        {
          "name": "",
          "type": "string"
        },
        {
          "name": "",
          "type": "string"
        },
        {
          "name": "",
          "type": "string"
        },
        {
          "name": "",
          "type": "string"
        },
        {
          "name": "",
          "type": "string"
        }
      ],
      "payable": false,
      "stateMutability": "nonpayable",
      "type": "function"
    },
    {
      "constant": false,
      "inputs": [
        {
          "name": "_landid",
          "type": "string"
        }
      ],
      "name": "retaccDetails",
      "outputs": [
        {
          "name": "",
          "type": "string"
        },
        {
          "name": "",
          "type": "string"
        },
        {
          "name": "",
          "type": "string"
        },
        {
          "name": "",
          "type": "string"
        },
        {
          "name": "",
          "type": "string"
        },
        {
          "name": "",
          "type": "string"
        },
        {
          "name": "",
          "type": "string"
        },
        {
          "name": "",
          "type": "string"
        }
      ],
      "payable": false,
      "stateMutability": "nonpayable",
      "type": "function"
    },
    {
      "constant": false,
      "inputs": [
        {
          "name": "_landid",
          "type": "string"
        },
        {
          "name": "_status",
          "type": "string"
        },
        {
          "name": "_moreAccess",
          "type": "string"
        }
      ],
      "name": "updateProperty",
      "outputs": [],
      "payable": false,
      "stateMutability": "nonpayable",
      "type": "function"
    },
    {
      "constant": false,
      "inputs": [
        {
          "name": "_Owner",
          "type": "string"
        },
        {
          "name": "_landid",
          "type": "string"
        },
        {
          "name": "_paddress",
          "type": "string"
        },
        {
          "name": "_phone",
          "type": "string"
        },
        {
          "name": "_document",
          "type": "string"
        },
        {
          "name": "_d",
          "type": "string"
        }
      ],
      "name": "updateOwnership",
      "outputs": [],
      "payable": false,
      "stateMutability": "nonpayable",
      "type": "function"
    },
    {
      "constant": false,
      "inputs": [
        {
          "name": "_moreAccess",
          "type": "string"
        }
      ],
      "name": "moreView",
      "outputs": [
        {
          "name": "",
          "type": "string"
        }
      ],
      "payable": false,
      "stateMutability": "nonpayable",
      "type": "function"
    }
  ],
  "bytecode": "0x608060405260008055600060015560006002556000600355600060045534801561002857600080fd5b5061278e806100386000396000f3fe608060405234801561001057600080fd5b50600436106100935760003560e01c8063ccff3b3b11610066578063ccff3b3b14610130578063cf76eb6814610160578063d48f780214610197578063db735bbd146101ce578063eed34251146101ea57610093565b8063113bf6ac1461009857806349620b21146100c85780635567f9cd146100e45780637796aea614610114575b600080fd5b6100b260048036036100ad9190810190611f5d565b61021a565b6040516100bf91906124a3565b60405180910390f35b6100e260048036036100dd919081019061214e565b6106f8565b005b6100fe60048036036100f99190810190611f5d565b61089a565b60405161010b91906124c5565b60405180910390f35b61012e60048036036101299190810190611f9e565b61099c565b005b61014a60048036036101459190810190611f5d565b610a36565b60405161015791906124a3565b60405180910390f35b61017a60048036036101759190810190611f5d565b610c9e565b60405161018e9897969594939291906124e7565b60405180910390f35b6101b160048036036101ac9190810190611f5d565b611275565b6040516101c59897969594939291906124e7565b60405180910390f35b6101e860048036036101e39190810190612035565b61184c565b005b61020460048036036101ff9190810190611f5d565b611992565b60405161021191906124a3565b60405180910390f35b606060cd600061022a9190611d48565b60ce60006102389190611d48565b60cf60006102469190611d48565b60d060006102549190611d48565b60d160006102629190611d48565b60d260006102709190611d48565b60d3600061027e9190611d48565b60d4600061028c9190611d48565b60d5600061029a9190611d48565b60006001819055505b600454600154101561060f576102c8602d600154601481106102c157fe5b0183611bfa565b156105f85760cd6005600154601481106102de57fe5b019080600181540180825580915050906001820390600052602060002001600090919290919091509080546001816001161561010002031660029004610325929190611d69565b505060ce60196001546014811061033857fe5b01908060018154018082558091505090600182039060005260206000200160009091929091909150908054600181600116156101000203166002900461037f929190611d69565b505060d060416001546014811061039257fe5b0190806001815401808255809150509060018203906000526020600020016000909192909190915090805460018160011615610100020316600290046103d9929190611d69565b505060d16055600154601481106103ec57fe5b019080600181540180825580915050906001820390600052602060002001600090919290919091509080546001816001161561010002031660029004610433929190611d69565b505060d260696001546014811061044657fe5b01908060018154018082558091505090600182039060005260206000200160009091929091909150908054600181600116156101000203166002900461048d929190611d69565b505060d3607d600154601481106104a057fe5b0190806001815401808255809150509060018203906000526020600020016000909192909190915090805460018160011615610100020316600290046104e7929190611d69565b505060d46091600154601481106104fa57fe5b019080600181540180825580915050906001820390600052602060002001600090919290919091509080546001816001161561010002031660029004610541929190611d69565b505060d560a56001546014811061055457fe5b01908060018154018082558091505090600182039060005260206000200160009091929091909150908054600181600116156101000203166002900461059b929190611d69565b505060d660b9600154601481106105ae57fe5b0190806001815401808255809150509060018203906000526020600020016000909192909190915090805460018160011615610100020316600290046105f5929190611d69565b50505b6001600081548092919060010191905055506102a3565b60cd805480602002602001604051908101604052809291908181526020016000905b828210156106ed578382906000526020600020018054600181600116156101000203166002900480601f0160208091040260200160405190810160405280929190818152602001828054600181600116156101000203166002900480156106d95780601f106106ae576101008083540402835291602001916106d9565b820191906000526020600020905b8154815290600101906020018083116106bc57829003601f168201915b505050505081526020019060010190610631565b505050509050919050565b8960056003546014811061070857fe5b01908051906020019061071c929190611df0565b508860196003546014811061072d57fe5b019080519060200190610741929190611df0565b508760416003546014811061075257fe5b019080519060200190610766929190611df0565b5086602d6003546014811061077757fe5b01908051906020019061078b929190611df0565b508560556003546014811061079c57fe5b0190805190602001906107b0929190611df0565b50846069600354601481106107c157fe5b0190805190602001906107d5929190611df0565b5083607d600354601481106107e657fe5b0190805190602001906107fa929190611df0565b508260916003546014811061080b57fe5b01908051906020019061081f929190611df0565b508160a56003546014811061083057fe5b019080519060200190610844929190611df0565b508060b96003546014811061085557fe5b019080519060200190610869929190611df0565b5060036000815480929190600101919050555060046000815480929190600101919050555050505050505050505050565b606060006001819055505b6004546001541015610996576108ca6091600154601481106108c357fe5b0183611bfa565b1561097f5760a5600154601481106108de57fe5b018054600181600116156101000203166002900480601f0160208091040260200160405190810160405280929190818152602001828054600181600116156101000203166002900480156109735780601f1061094857610100808354040283529160200191610973565b820191906000526020600020905b81548152906001019060200180831161095657829003601f168201915b50505050509050610997565b6001600081548092919060010191905055506108a5565b5b919050565b60006001819055505b6004546001541015610a31576109ca6005600154601481106109c357fe5b0184611bfa565b15610a1a57816055600154601481106109df57fe5b0190805190602001906109f3929190611df0565b5080609160015460148110610a0457fe5b019080519060200190610a18929190611df0565b505b6001600081548092919060010191905055506109a5565b505050565b606060cd6000610a469190611d48565b60ce6000610a549190611d48565b60cf6000610a629190611d48565b60d06000610a709190611d48565b60d16000610a7e9190611d48565b60d26000610a8c9190611d48565b60d36000610a9a9190611d48565b60d46000610aa89190611d48565b60d56000610ab69190611d48565b60006001819055505b6004546001541015610b5b57610ae4605560015460148110610add57fe5b0183611bfa565b15610b445760cd600560015460148110610afa57fe5b019080600181540180825580915050906001820390600052602060002001600090919290919091509080546001816001161561010002031660029004610b41929190611d69565b50505b600160008154809291906001019190505550610abf565b60cd600560015460148110610b6c57fe5b019080600181540180825580915050906001820390600052602060002001600090919290919091509080546001816001161561010002031660029004610bb3929190611d69565b505060cd805480602002602001604051908101604052809291908181526020016000905b82821015610c93578382906000526020600020018054600181600116156101000203166002900480601f016020809104026020016040519081016040528092919081815260200182805460018160011615610100020316600290048015610c7f5780601f10610c5457610100808354040283529160200191610c7f565b820191906000526020600020905b815481529060010190602001808311610c6257829003601f168201915b505050505081526020019060010190610bd7565b505050509050919050565b60608060608060608060608060006001819055505b600454600154101561126957610cd8600560015460148110610cd157fe5b018a611bfa565b1561125257600560015460148110610cec57fe5b01601960015460148110610cfc57fe5b01602d60015460148110610d0c57fe5b0160b960015460148110610d1c57fe5b01604160015460148110610d2c57fe5b01605560015460148110610d3c57fe5b01606960015460148110610d4c57fe5b01607d60015460148110610d5c57fe5b01878054600181600116156101000203166002900480601f016020809104026020016040519081016040528092919081815260200182805460018160011615610100020316600290048015610df25780601f10610dc757610100808354040283529160200191610df2565b820191906000526020600020905b815481529060010190602001808311610dd557829003601f168201915b50505050509750868054600181600116156101000203166002900480601f016020809104026020016040519081016040528092919081815260200182805460018160011615610100020316600290048015610e8e5780601f10610e6357610100808354040283529160200191610e8e565b820191906000526020600020905b815481529060010190602001808311610e7157829003601f168201915b50505050509650858054600181600116156101000203166002900480601f016020809104026020016040519081016040528092919081815260200182805460018160011615610100020316600290048015610f2a5780601f10610eff57610100808354040283529160200191610f2a565b820191906000526020600020905b815481529060010190602001808311610f0d57829003601f168201915b50505050509550848054600181600116156101000203166002900480601f016020809104026020016040519081016040528092919081815260200182805460018160011615610100020316600290048015610fc65780601f10610f9b57610100808354040283529160200191610fc6565b820191906000526020600020905b815481529060010190602001808311610fa957829003601f168201915b50505050509450838054600181600116156101000203166002900480601f0160208091040260200160405190810160405280929190818152602001828054600181600116156101000203166002900480156110625780601f1061103757610100808354040283529160200191611062565b820191906000526020600020905b81548152906001019060200180831161104557829003601f168201915b50505050509350828054600181600116156101000203166002900480601f0160208091040260200160405190810160405280929190818152602001828054600181600116156101000203166002900480156110fe5780601f106110d3576101008083540402835291602001916110fe565b820191906000526020600020905b8154815290600101906020018083116110e157829003601f168201915b50505050509250818054600181600116156101000203166002900480601f01602080910402602001604051908101604052809291908181526020018280546001816001161561010002031660029004801561119a5780601f1061116f5761010080835404028352916020019161119a565b820191906000526020600020905b81548152906001019060200180831161117d57829003601f168201915b50505050509150808054600181600116156101000203166002900480601f0160208091040260200160405190810160405280929190818152602001828054600181600116156101000203166002900480156112365780601f1061120b57610100808354040283529160200191611236565b820191906000526020600020905b81548152906001019060200180831161121957829003601f168201915b505050505090509750975097509750975097509750975061126a565b600160008154809291906001019190505550610cb3565b5b919395975091939597565b60608060608060608060608060006001819055505b6004546001541015611840576112af6005600154601481106112a857fe5b018a611bfa565b15611829576005600154601481106112c357fe5b016019600154601481106112d357fe5b016041600154601481106112e357fe5b016055600154601481106112f357fe5b0160696001546014811061130357fe5b01607d6001546014811061131357fe5b0160916001546014811061132357fe5b0160a56001546014811061133357fe5b01878054600181600116156101000203166002900480601f0160208091040260200160405190810160405280929190818152602001828054600181600116156101000203166002900480156113c95780601f1061139e576101008083540402835291602001916113c9565b820191906000526020600020905b8154815290600101906020018083116113ac57829003601f168201915b50505050509750868054600181600116156101000203166002900480601f0160208091040260200160405190810160405280929190818152602001828054600181600116156101000203166002900480156114655780601f1061143a57610100808354040283529160200191611465565b820191906000526020600020905b81548152906001019060200180831161144857829003601f168201915b50505050509650858054600181600116156101000203166002900480601f0160208091040260200160405190810160405280929190818152602001828054600181600116156101000203166002900480156115015780601f106114d657610100808354040283529160200191611501565b820191906000526020600020905b8154815290600101906020018083116114e457829003601f168201915b50505050509550848054600181600116156101000203166002900480601f01602080910402602001604051908101604052809291908181526020018280546001816001161561010002031660029004801561159d5780601f106115725761010080835404028352916020019161159d565b820191906000526020600020905b81548152906001019060200180831161158057829003601f168201915b50505050509450838054600181600116156101000203166002900480601f0160208091040260200160405190810160405280929190818152602001828054600181600116156101000203166002900480156116395780601f1061160e57610100808354040283529160200191611639565b820191906000526020600020905b81548152906001019060200180831161161c57829003601f168201915b50505050509350828054600181600116156101000203166002900480601f0160208091040260200160405190810160405280929190818152602001828054600181600116156101000203166002900480156116d55780601f106116aa576101008083540402835291602001916116d5565b820191906000526020600020905b8154815290600101906020018083116116b857829003601f168201915b50505050509250818054600181600116156101000203166002900480601f0160208091040260200160405190810160405280929190818152602001828054600181600116156101000203166002900480156117715780601f1061174657610100808354040283529160200191611771565b820191906000526020600020905b81548152906001019060200180831161175457829003601f168201915b50505050509150808054600181600116156101000203166002900480601f01602080910402602001604051908101604052809291908181526020018280546001816001161561010002031660029004801561180d5780601f106117e25761010080835404028352916020019161180d565b820191906000526020600020905b8154815290600101906020018083116117f057829003601f168201915b5050505050905097509750975097509750975097509750611841565b60016000815480929190600101919050555061128a565b5b919395975091939597565b60006001819055505b600454600154101561198a5761187a60056001546014811061187357fe5b0186611bfa565b15611973577f804848d0f982a7d4ae55440b6d2b042cac00d89f06b6eb4e43dc02ebd83775ae85602d600154601481106118b057fe5b016041600154601481106118c057fe5b018988866040516118d69695949392919061259d565b60405180910390a185602d600154601481106118ee57fe5b019080519060200190611902929190611df0565b508360416001546014811061191357fe5b019080519060200190611927929190611df0565b508160a56001546014811061193857fe5b01908051906020019061194c929190611df0565b5082607d6001546014811061195d57fe5b019080519060200190611971929190611df0565b505b600160008154809291906001019190505550611855565b505050505050565b606060cd60006119a29190611d48565b60ce60006119b09190611d48565b60cf60006119be9190611d48565b60d060006119cc9190611d48565b60d160006119da9190611d48565b60d260006119e89190611d48565b60d360006119f69190611d48565b60d46000611a049190611d48565b60d56000611a129190611d48565b60006001819055505b6004546001541015611ab757611a40607d60015460148110611a3957fe5b0183611bfa565b15611aa05760cd600560015460148110611a5657fe5b019080600181540180825580915050906001820390600052602060002001600090919290919091509080546001816001161561010002031660029004611a9d929190611d69565b50505b600160008154809291906001019190505550611a1b565b60cd600560015460148110611ac857fe5b019080600181540180825580915050906001820390600052602060002001600090919290919091509080546001816001161561010002031660029004611b0f929190611d69565b505060cd805480602002602001604051908101604052809291908181526020016000905b82821015611bef578382906000526020600020018054600181600116156101000203166002900480601f016020809104026020016040519081016040528092919081815260200182805460018160011615610100020316600290048015611bdb5780601f10611bb057610100808354040283529160200191611bdb565b820191906000526020600020905b815481529060010190602001808311611bbe57829003601f168201915b505050505081526020019060010190611b33565b505050509050919050565b600080839050606083905080518280546001816001161561010002031660029004905014611c2d57600092505050611d42565b600080819055505b818054600181600116156101000203166002900490506000541015611d3b578060005481518110611c6257fe5b602001015160f81c60f81b7effffffffffffffffffffffffffffffffffffffffffffffffffffffffffffff191682600054815460018160011615610100020316600290048110611cae57fe5b815460011615611ccd5790600052602060002090602091828204019190065b9054901a7f0100000000000000000000000000000000000000000000000000000000000000027effffffffffffffffffffffffffffffffffffffffffffffffffffffffffffff191614611d2557600092505050611d42565b6000808154809291906001019190505550611c35565b6001925050505b92915050565b5080546000825590600052602060002090810190611d669190611e70565b50565b828054600181600116156101000203166002900490600052602060002090601f016020900481019282601f10611da25780548555611ddf565b82800160010185558215611ddf57600052602060002091601f016020900482015b82811115611dde578254825591600101919060010190611dc3565b5b509050611dec9190611e9c565b5090565b828054600181600116156101000203166002900490600052602060002090601f016020900481019282601f10611e3157805160ff1916838001178555611e5f565b82800160010185558215611e5f579182015b82811115611e5e578251825591602001919060010190611e43565b5b509050611e6c9190611e9c565b5090565b611e9991905b80821115611e955760008181611e8c9190611ec1565b50600101611e76565b5090565b90565b611ebe91905b80821115611eba576000816000905550600101611ea2565b5090565b90565b50805460018160011615610100020316600290046000825580601f10611ee75750611f06565b601f016020900490600052602060002090810190611f059190611e9c565b5b50565b600082601f830112611f1a57600080fd5b8135611f2d611f2882612655565b612628565b91508082526020830160208301858383011115611f4957600080fd5b611f54838284612701565b50505092915050565b600060208284031215611f6f57600080fd5b600082013567ffffffffffffffff811115611f8957600080fd5b611f9584828501611f09565b91505092915050565b600080600060608486031215611fb357600080fd5b600084013567ffffffffffffffff811115611fcd57600080fd5b611fd986828701611f09565b935050602084013567ffffffffffffffff811115611ff657600080fd5b61200286828701611f09565b925050604084013567ffffffffffffffff81111561201f57600080fd5b61202b86828701611f09565b9150509250925092565b60008060008060008060c0878903121561204e57600080fd5b600087013567ffffffffffffffff81111561206857600080fd5b61207489828a01611f09565b965050602087013567ffffffffffffffff81111561209157600080fd5b61209d89828a01611f09565b955050604087013567ffffffffffffffff8111156120ba57600080fd5b6120c689828a01611f09565b945050606087013567ffffffffffffffff8111156120e357600080fd5b6120ef89828a01611f09565b935050608087013567ffffffffffffffff81111561210c57600080fd5b61211889828a01611f09565b92505060a087013567ffffffffffffffff81111561213557600080fd5b61214189828a01611f09565b9150509295509295509295565b6000806000806000806000806000806101408b8d03121561216e57600080fd5b60008b013567ffffffffffffffff81111561218857600080fd5b6121948d828e01611f09565b9a505060208b013567ffffffffffffffff8111156121b157600080fd5b6121bd8d828e01611f09565b99505060408b013567ffffffffffffffff8111156121da57600080fd5b6121e68d828e01611f09565b98505060608b013567ffffffffffffffff81111561220357600080fd5b61220f8d828e01611f09565b97505060808b013567ffffffffffffffff81111561222c57600080fd5b6122388d828e01611f09565b96505060a08b013567ffffffffffffffff81111561225557600080fd5b6122618d828e01611f09565b95505060c08b013567ffffffffffffffff81111561227e57600080fd5b61228a8d828e01611f09565b94505060e08b013567ffffffffffffffff8111156122a757600080fd5b6122b38d828e01611f09565b9350506101008b013567ffffffffffffffff8111156122d157600080fd5b6122dd8d828e01611f09565b9250506101208b013567ffffffffffffffff8111156122fb57600080fd5b6123078d828e01611f09565b9150509295989b9194979a5092959850565b600061232583836123db565b905092915050565b6000612338826126a0565b61234281856126ce565b93508360208202850161235485612681565b8060005b8581101561239057848403895281516123718582612319565b945061237c836126c1565b925060208a01995050600181019050612358565b50829750879550505050505092915050565b60006123ad826126b6565b6123b781856126f0565b93506123c7818560208601612710565b6123d081612743565b840191505092915050565b60006123e6826126ab565b6123f081856126df565b9350612400818560208601612710565b61240981612743565b840191505092915050565b60008154600181166000811461243157600181146124575761249b565b607f600283041661244281876126f0565b955060ff19831686526020860193505061249b565b6002820461246581876126f0565b95506124708561268e565b60005b8281101561249257815481890152600182019150602081019050612473565b80880195505050505b505092915050565b600060208201905081810360008301526124bd818461232d565b905092915050565b600060208201905081810360008301526124df81846123a2565b905092915050565b6000610100820190508181036000830152612502818b6123a2565b90508181036020830152612516818a6123a2565b9050818103604083015261252a81896123a2565b9050818103606083015261253e81886123a2565b9050818103608083015261255281876123a2565b905081810360a083015261256681866123a2565b905081810360c083015261257a81856123a2565b905081810360e083015261258e81846123a2565b90509998505050505050505050565b600060c08201905081810360008301526125b781896123a2565b905081810360208301526125cb8188612414565b905081810360408301526125df8187612414565b905081810360608301526125f381866123a2565b9050818103608083015261260781856123a2565b905081810360a083015261261b81846123a2565b9050979650505050505050565b6000604051905081810181811067ffffffffffffffff8211171561264b57600080fd5b8060405250919050565b600067ffffffffffffffff82111561266c57600080fd5b601f19601f8301169050602081019050919050565b6000602082019050919050565b60008160005260206000209050919050565b600081519050919050565b600081519050919050565b600081519050919050565b6000602082019050919050565b600082825260208201905092915050565b600082825260208201905092915050565b600082825260208201905092915050565b82818337600083830152505050565b60005b8381101561272e578082015181840152602081019050612713565b8381111561273d576000848401525b50505050565b6000601f19601f830116905091905056fea265627a7a723058205513e4ff19fe447a860f440a700edda4060791e8c5e216d7c0f0cecb31ffe79e6c6578706572696d656e74616cf50037",
  "source": "pragma solidity ^0.5.0;\r\npragma experimental ABIEncoderV2;\r\n\r\n\r\ncontract LandRecord\r\n{\r\n    uint i=0;\r\n    uint j=0;\r\n    uint k=0;\r\n    uint z=0;\r\n    uint insertcount=0;\r\n    string[20] Land_id;\r\n    string[20] Land_name;\r\n    string[20] Owner;\r\n    string[20] paddress;\r\n    string[20] status;\r\n    string[20] city;\r\n    string[20] phone;\r\n    string[20] moreAccess;\r\n    string[20] documents;\r\n    string[20] price;\r\n    \r\n    string[] Land_id_arr;\r\n    string[] Land_name_arr;\r\n    string[] Owner_arr;\r\n    string[] paddress_arr;\r\n    string[] status_arr;\r\n    string[] city_arr;\r\n    string[] phone_arr;\r\n    string[] moreAccess_arr;\r\n    string[] documents_arr;\r\n    string[] price_arr;\r\n\r\n    event Transferred(string land_id, string current_owner, string current_paddress,string new_owner ,string new_paddress, string d );\r\n    \r\n    \r\n    \r\n    \r\n    function storeProperty(string memory _Land_id,string memory _Land_name,string memory _paddress, string memory _Owner,string memory _status, string memory _city, string memory _phone,string memory _moreAccess,string memory _documents,string memory _price) public {\r\n        \r\n        Land_id[z]= _Land_id;\r\n        Land_name[z] = _Land_name;\r\n        paddress[z] = _paddress;\r\n        Owner[z] = _Owner;\r\n        status[z] = _status;\r\n        city[z] = _city;\r\n        phone[z] = _phone;\r\n        moreAccess[z]= _moreAccess;\r\n        documents[z]= _documents;\r\n        price[z]= _price;\r\n\r\n        z++;\r\n        \r\n        insertcount++;\r\n    }    \r\n    \r\n    function stringsEqual(string storage _a, string memory _b) internal returns (bool) {\r\n\t\tbytes storage a = bytes(_a);\r\n\t\tbytes memory b = bytes(_b);\r\n\t\tif (a.length != b.length)\r\n\t\t\treturn false;\r\n\r\n\t\tfor (i = 0; i < a.length; i ++)\r\n\t\t\tif (a[i] != b[i])\r\n\t\t\t\treturn false;\r\n\t\treturn true;\r\n\t}\r\n\t\r\n\t\r\n\t\r\n\r\n        \r\nfunction searchProperty(string memory _status) public returns(string [] memory){\r\ndelete Land_id_arr;\r\n   delete Land_name_arr;\r\n    delete Owner_arr;\r\n   delete paddress_arr;\r\n    delete status_arr;\r\n    delete city_arr;\r\n   delete phone_arr;\r\n   delete moreAccess_arr;\r\n    delete documents_arr;   \r\nfor(j=0;j<insertcount;j++)\r\n{\r\n\r\nif(stringsEqual(status[j],_status))\r\n{\r\n    Land_id_arr.push(Land_id[j]);\r\n   \r\n}\r\n\r\n\r\n}\r\n\r\nLand_id_arr.push(Land_id[j]);\r\n\r\nreturn (Land_id_arr);\r\n}\r\n\r\nfunction searchMyProperty(string memory _phone) public returns(string [] memory){\r\ndelete Land_id_arr;\r\n   delete Land_name_arr;\r\n    delete Owner_arr;\r\n   delete paddress_arr;\r\n    delete status_arr;\r\n    delete city_arr;\r\n   delete phone_arr;\r\n   delete moreAccess_arr;\r\n    delete documents_arr;   \r\nfor(j=0;j<insertcount;j++)\r\n{\r\n\r\nif(stringsEqual(phone[j],_phone))\r\n{\r\nLand_id_arr.push(Land_id[j]);\r\n\r\n   \r\n}\r\n\r\n}\r\nLand_id_arr.push(Land_id[j]);\r\nreturn (Land_id_arr);\r\n}\r\n\r\nfunction accDetails(string memory _Owner) public returns(string [] memory){\r\n delete Land_id_arr;\r\n   delete Land_name_arr;\r\n    delete Owner_arr;\r\n   delete paddress_arr;\r\n    delete status_arr;\r\n    delete city_arr;\r\n   delete phone_arr;\r\n   delete moreAccess_arr;\r\n    delete documents_arr;\r\n    \r\nfor(j=0;j<insertcount;j++)\r\n{\r\nif(stringsEqual(Owner[j],_Owner))\r\n{\r\n    Land_id_arr.push(Land_id[j]);\r\n    Land_name_arr.push(Land_name[j]);\r\n    paddress_arr.push(paddress[j]);\r\n    status_arr.push(status[j]);\r\n    city_arr.push(city[j]);\r\n    phone_arr.push(phone[j]);\r\n    moreAccess_arr.push(moreAccess[j]);\r\n    documents_arr.push(documents[j]);\r\n    price_arr.push(price[j]);\r\n\r\n\r\n}\r\n\r\n}\r\n\r\nreturn (Land_id_arr);\r\n\r\n}\r\n\r\nfunction retsearchProperty(string memory _landid) public returns(string memory,string memory,string memory,string memory,string memory,string memory,string memory,string memory){\r\n\r\n    \r\nfor(j=0;j<insertcount;j++)\r\n{\r\n\r\nif(stringsEqual(Land_id[j],_landid))\r\n{\r\nreturn (Land_id[j],Land_name[j],Owner[j],price[j],paddress[j],status[j],city[j],phone[j]);\r\n}\r\n\r\n}\r\n\r\n\r\n}\r\n\r\nfunction retaccDetails(string memory _landid) public returns(string memory,string memory,string memory,string memory,string memory,string memory,string memory,string memory){\r\n\r\n    \r\nfor(j=0;j<insertcount;j++)\r\n{\r\n\r\nif(stringsEqual(Land_id[j],_landid))\r\n{\r\nreturn (Land_id[j],Land_name[j],paddress[j],status[j],city[j],phone[j],moreAccess[j],documents[j]);\r\n\r\n}\r\n}\r\n\r\n}\r\nfunction updateProperty(string memory _landid,string memory _status,string memory _moreAccess) public{\r\n\r\n    \r\nfor(j=0;j<insertcount;j++)\r\n{\r\n\r\n \r\n    if(stringsEqual(Land_id[j],_landid)){\r\n        status[j] = _status;\r\n        moreAccess[j] = _moreAccess; \r\n    }\r\n\r\n\r\n}\r\n}\r\n\r\nfunction updateOwnership(string memory _Owner,string memory _landid, string memory _paddress,  string memory _phone,string memory _document, string memory _d) public{\r\n\r\n    \r\nfor(j=0;j<insertcount;j++)\r\n{\r\n     if(stringsEqual(Land_id[j],_landid)){\r\n    \r\n    emit Transferred(_landid, Owner[j], paddress[j] , _Owner , _paddress,_d);\r\n\r\n               Owner[j]=_Owner;\r\n               paddress[j]=_paddress;\r\n               documents[j]=_document;\r\n               phone[j]=_phone;\r\n           }\r\n}\r\n\r\n\r\n\r\n}\r\nfunction moreView(string memory _moreAccess) public returns(string memory){\r\n\r\n    \r\nfor(j=0;j<insertcount;j++)\r\n{\r\n\r\nif(stringsEqual(moreAccess[j],_moreAccess))\r\n{\r\n    return (documents[j]);\r\n}\r\n\r\n}\r\n}\r\n\r\n         \r\n}",
  "sourcePath": "C:/Users/RHEA/Desktop/backup/project/contracts/LandRecord.sol",
  "compiler": {
    "name": "solc",
    "version": "0.5.8+commit.23d335f2.Emscripten.clang"
  },
  "schemaVersion": "3.0.13",
  "updatedAt": "2020-04-26T21:48:32.135Z",
  "devdoc": {
    "methods": {}
  },
  "userdoc": {
    "methods": {}
  }
}